:040000000C948203D7
:100004000C9400000C9400000C9400000C9400006C
:100014000C9400000C9400000C9400000C9400005C
:100024000C9400000C9400000C9400000C9400004C
:100034000C9400000C9400000C9400000C9400003C
:100044000C9400000C9400000C9400000C9400002C
:1000540005072060000000000000005F00000007AA
:10006400000700147F147F14242A7F2A1223130804
:10007400646236495522500005030000001C2241E9
:10008400000041221C00082A1C2A0808083E08080F
:100094000050300000080808080800303000002034
:1000A400100804023E5149453E00427F400042612F
:1000B4005149462141454B311814127F10274545BB
:1000C40045393C4A494930017109050336494949D2
:1000D40036064949291E003636000000563600000F
:1000E40000081422411414141414412214080002A8
:1000F40001510906324979413E7E1111117E7F4931
:100104004949363E414141227F4141221C7F4949B0
:1001140049417F090901013E414151327F080808E4
:100124007F00417F41002040413F017F081422416C
:100134007F404040407F0204027F7F0408107F3EDE
:100144004141413E7F090909063E4151215E7F0933
:10015400192946464949493101017F01013F40407F
:10016400403F1F2040201F7F2018207F6314081465
:10017400630304780403615149454300007F41410E
:10018400020408102041417F0000040201020440DF
:1001940040404040000102040020545454787F48F9
:1001A4004444383844444420384444487F38545400
:1001B4005418087E090102081454543C7F080404AE
:1001C4007800447D40002040443D00007F102844D6
:1001D40000417F40007C041804787C0804047838CB
:1001E400444444387C14141408081414187C7C08FF
:1001F4000404084854545420043F4440203C4040E4
:10020400207C1C2040201C3C4030403C44281028CA
:10021400440C5050503C4464544C44000836410053
:1002240000007F0000004136080002010204027F42
:100234004141417F80004000FF00000000000000B9
:1002440000000000000000000000000000000000AA
:10025400000000000000000000000000000000009A
:10026400000000000000000000000000000000008A
:10027400000000000000000000000000000000007A
:10028400000000000000000000000000000000006A
:10029400000000000000000000000000000000005A
:1002A400000000000000000000000000000000004A
:1002B40000000000000000FFFF000000000000003C
:1002C400000000000000000000000000000000002A
:1002D400000000000000000000000000000000001A
:1002E400000000000000000000000000000000000A
:1002F400000000000000000000000000008000007A
:1003040000000000000000000000000000000000E9
:1003140000000000000000000000000000000000D9
:1003240000000000000000000000000000000000C9
:1003340000000000000000FFFF00000000000000BB
:1003440000000000000000000000808080C0C0C0E9
:100354002020202060606060606060606060606099
:100364006060606060202020202020A070F01010C9
:10037400F01808080808060605412232F12100F0A9
:100384000000000000400000202000F010000000E9
:100394000000000000000000000000000000000059
:1003A4000000000000000000008040200000000069
:1003B40000000000000000FFFF000000000000003B
:1003C40000000000F8040201010101000000080817
:1003D4000808080C0C000000000000406040008089
:1003E40080E0908880D45050484847642625B4B2B1
:1003F400B998C85454422A203413924B2A2A1534EB
:1004040034363E282025292C222426212020202071
:100414002020303030301010101010181808080840
:100424000CC4C444020202010100000000000000E8
:1004340000000000000000FFFF00000000000000BA
:100444000000000003000000000080402020101085
:100454001808080C04040602020283818101414148
:10046400400000212121212101111111111110003D
:10047400080808080808080808FF09080808080800
:100484000808080808080808101090600000000018
:100494000000000000000000000000000000000058
:1004A4000000000000000000000000000000000048
:1004B40000000000000000FFFF000000000000003A
:1004C4000000000000000000000F181030206060E1
:1004D4004040C0C0C08080808080808080808080D8
:1004E4008080808080808080808080808080C0C088
:1004F4004040404040406020202720201010101031
:1005040008080804040402020301000000000000BB
:1005140000000000000000000000000000000000D7
:1005240000000000000000000000000000000000C7
:1005340000000000000000FFFF00000000000000B9
:1005440000000000000000000000000000000000A7
:100554000000000000000000000000000000000097
:100564000000000000000000000000000000000087
:100574000000000000000000000000000000000077
:100584000000000000000000000000000000000067
:100594000000000000000000000000000000000057
:1005A4000000000000000000000000000000000047
:1005B40000000000000000FFFF0000000000000039
:1005C4000000000000000000000000000000000027
:1005D4000000000000000000000000000000000017
:1005E4000000000000000000000000000000000007
:1005F40000000000000000000000000000000000F7
:1006040000000000000000000000000000000000E6
:1006140000000000000000000000000000000000D6
:1006240000000000000000000000000000000000C6
:1006340000000000000000FF000103070F1F3F7FC0
:10064400FF0000000000000000000000434C4F4386
:100654004B3A00253032643A253032643A25303240
:100664006400444154453A00253032642F253264F5
:100674002F253032640025342E31660054454D5008
:100684003A200052454C41595F313A204F464600CA
:1006940052454C41595F323A204F46460052454C30
:1006A40041595F313A204F4E0052454C41595F3217
:1006B4003A204F4E00002D4E414E000001002D4EB9
:1006C400414E00494E4600000A0004004606070059
:1006D4006002500606006702660607006D02800687
:1006E4000D00740287060D00810294060C008E0230
:1006F400A1060C009A02AD060100FA02C006000031
:10070400F894EE27ECBBF1E0FBBFEBBFE5BF8DE057
:10071400A2E0BB27ED938A95E9F780E098E0A0E694
:10072400ED930197E9F7ECECF6E08591959100974C
:1007340061F0A591B59105901590BF01F001059068
:100744000D920197E1F7FB01F0CFEFE5EDBFE8E093
:10075400EEBFC0E6D2E00C94AF0326978E988F9834
:10076400BE9ABF9AE0E0E3BFE2BFECBFEFBDEEBDCF
:10077400EDBDECBDE7BDE6BDEBBDEABDE9BDE8BD41
:10078400E2BDE5BDE4BDE3BDE9BFE5BFE4BFEBB950
:10079400E8E1EAB9E6E8E0BDE0E0E0BDE6E0E9B9B9
:1007A400E0E8E8B9E0E0E0BFE6B9EDB9E6BF0E94F1
:1007B4002811E0E0EA93E9E1EA93E4E2EA93A0E0B5
:1007C4001BD1E0E0EA93E1E0EA93A0E051D1E4E553
:1007D400F0E0E883F983E0E0EA83EB83EC83ED83E4
:1007E400DE013BD2EBE05E2EECE14E2E0E94580F70
:1007F400E3E0DE2EECE0AE2EE7E0BE2E6A92BA9283
:10080400AA92AD2D95D1E0E0EA93EA93E8E3F2E011
:10081400FA93EA93A0E00E94220AA0EDB7E00E94B6
:1008240079110E949406E5E0F0E0FA93EA93E4E09B
:10083400F0E0FA93EA93A7E0B0E035D1E0E0EA9380
:10084400EA93A0E6B2E00E940D0AE3ECF2E0FA9328
:10085400EA93E7E5F6E0FA93EA93E52D0E945D0F4B
:10086400E42D0E945D0FE72D0E945D0F0E94630F2F
:10087400E0E0EA93A3ECB2E00E940D0A869907C077
:100884004394ECE3E41509F444240E94580F879937
:1008940007C05394E8E1E51509F455240E94580F64
:1008A400E6E0F0E0FA93EA93EBE0F0E0FA93EA93FF
:1008B400EAE0F0E0FA93EA93ADE0B0E01ED1E0E0C4
:1008C400EA93EAE0EA93A7E6B2E00E940D0AE3EEB7
:1008D400F2E0FA93EA93ECE6F6E0FA93EA93ED2D6C
:1008E4000E945D0FEA2D0E945D0FEB2D0E945D0FAB
:1008F4000E94630FEAE0EA93A3EEB2E00E940D0ABD
:10090400A0E096D04F010E946A0FDF01CB010E9444
:100914006F0F0E94C712E093F302F093F402609306
:10092400F5027093F602E3EDF2E0FA93EA93EAE754
:10093400F6E0FA93EA93E091F302F091F402609105
:10094400F5027091F6020E94081484E00E94830D5F
:100954002896E0E0EA93E4E1EA93ADE6B2E00E948F
:100964000D0AEDE1EA93E4E1EA93A3EDB2E00E941B
:100974000D0AE0E0EA93EEE1EA93A4E7B2E00E9414
:100984000D0AE0E0EA93E8E2EA93A1E8B2E00E940B
:100994000D0A0E94740FE0E0F0E068EC71E40E943C
:1009A4000C1340F0C69AEA93EEE1EA93AEE8B2E0A3
:1009B4000E940D0A0E94740FE0E0F0E060EF71E421
:1009C4000E940C1340F0C79AEA93E8E2EA93AAE97A
:1009D400B2E00E940D0A27CFFFCFAA930E942D11E7
:1009E400AA810E946111A9810E946111A8810E94BB
:1009F4007D0F0E943C1194C1AA931A93EC810E942A
:100A0400820F0E946111A1E00E946111E981EE0F41
:100A1400EE0F0E94890F1A93E2E0EA93AD81DDDFC5
:100A24001A93E3E0EA93AC81D8DF18812596089500
:100A3400AA9322971A93EB810E94820F0E947D0F42
:100A44000E942D111F5FA12F0E948E0FEA83A0E048
:100A54000E944611E9830E943C11A981BA81E7E012
:100A64000E944C13A5E0B0E00E94881318817EC157
:100A7400AA93EA81E370EA83E981E03019F0EA811C
:100A8400E061EA83E881E03019F0EA81E068EA8312
:100A94000E94930FA7E00E946111AA810E94611134
:100AA4000E943C113DC1BA93AA930E942D11A0ED5E
:100AB4000E947D0F0E94980F0E949E0F0E94A50F16
:100AC4000E94AB0FAE2F0E94B70DAC81BD81EC9399
:100AD4000E943C1186C1AA930E942D11A0ED0E9490
:100AE4007D0FA8810E94B10FA9810E94B10FAA8134
:100AF4000E94C40D0E94890F13C1BA93AA930E9445
:100B0400930FA3E00E9461110E94980FAE81BF81F0
:100B1400EC930E94A50FAC81BD81EC930E94A50FBC
:100B24000E94AB0F0E949E0F0E943C110C940B0A72
:100B3400AA930E94930FA3E00E946111AB810E94CB
:100B44006111AA810E94B10FA9810E94B10FA881ED
:100B54000E94C40D0E94890F09C10000C29A0000BE
:100B64000895C298C498C39808951A93F6DF19B3E8
:100B7400C298E12F19910895AA931A93E0E0EABB71
:100B8400C19AC098E981EF5F1E2F10FF02C0C49A7A
:100B940001C0C49811FF02C0C39A01C0C398E5DF25
:100BA400E078E9F7188157C0AA93A981E5DF0E948C
:100BB400B60F51C0E091F802EA93E091F702EF73A7
:100BC400E064AE2FF1DFE091F802EA93E091F902DC
:100BD400E86BAE2FE9DF0895AA93E981E093F70269
:100BE400E295EF70E695E695E093F802E881E093EC
:100BF400F902E0DF30C0A091F702AF5FA093F702E3
:100C0400A03818F0E0E0E093F702E091F702EF7308
:100C140031F4E091F702EA93A091F902DDDF08953F
:100C2400AA93A091F802A8DFC09A0E94B60F219659
:100C34000895A091F802A0DFE0E0EABBC19AC09A4F
:100C440094DF0895AA93E981EA93E9810E94BF0F92
:100C5400F0DFB0DFEEDF22960895BA93AA931A93D9
:100C6400BA9AB99AB89ABD9AC59ABC9ABB9A79DFCE
:100C7400C598A4E6B0E00E947911C59A10E012303C
:100C840040F41A93AFE390DF1A931395A0EC8CDF32
:100C9400F6CFE1E0E093A602E0E0E093A702E98169
:100CA400FA813097A9F0A981BA810E94EF13E093E9
:100CB400AA02F093AB0212960E94EF13E093BF02D4
:100CC400F093C002A981BA8114960E94EF130AC05E
:100CD400E0E0F0E0E093AA02F093AB02E093BF02FD
:100CE400F093C002E093C102F093C202E1E0E0930A
:100CF400AC02E093AD02E093AE02EFEFE093AF02FB
:100D0400E1E0E093B602E7EBF2E0FA93EA93EFEF67
:100D1400EA93A8E0B0E00E94CE0D04D0E1E018818F
:100D2400239608950E94461400E030E0E091A70263
:100D3400E03009F00FEF383078F4E0E0EA93A32FC5
:100D44003F5F4ADF10E0A12F1F5FA03820F4A02FDF
:100D54000E94C50FF8CFEFCFE0E0EA93A0E03CDFBC
:100D6400E0E0EA93A0E09AD30E944D1424960895FB
:100D7400AA931A93ED81EA93AD8164DF1E2F1ADFE3
:100D8400E981E73011F0E83039F4EB81EA93AA8184
:100D94000E940F0EEB8308C0E33021F4EB81E09551
:100DA400EB8302C0E03021F4EA81E0951E2302C007
:100DB400E23029F4EA81AB81EA231E2B0EC0E13034
:100DC40029F4EA81AB81EA231E2707C0E43029F421
:100DD400EA81E095AB81EA2B1E23A12F0E94C50F67
:100DE400188126960895AA9323970E944414A889EB
:100DF400A03848F4AF85A03430F4AE85A03019F0A3
:100E0400AD85A03009F4C8C1EE85E887A889BB2761
:100E1400EE85F0E0AE0FBF1FA138E0E0BE0720F082
:100E2400A889E0E8EA1BEE872D85AF85BB27ED8511
:100E3400F0E0AE0FBF1FA134E0E0BE0720F0AF85A5
:100E4400E0E4EA1BED87A985A63009F05BC0EC85D8
:100E5400E13009F4A1C1E33039F4E091C102F09129
:100E6400C202309709F498C10885ED85E695E695A8
:100E7400E6953E2FE22FE77019F4AD852A17E9F0C5
:100E8400A02FBB27E32FF0E00E946013AA85BB8547
:100E94000E94C90F269526952695532F5F935F5F71
:100EA400E22FAF91EA1748F0102FE12F1150E030F4
:100EB40019F00E94CE0FF9CFF1CFAE850A1711F1C8
:100EC400EE85AA85BB85F0E00E94C90FED85E77029
:100ED40009F03F5F20E02F932F5FE32FAF91AE1710
:100EE40088F41E851F931F5FE02FAF91AE1718F48F
:100EF4000E94CE0FF7CFEE85AE81BF81F0E00E9455
:100F0400C90FE9CFEF85E7703E2FED85E03009F496
:100F140043C1EA85FB85EE83FF8310E00889303006
:100F240009F065C0AD85A83008F45CC0E985E030FF
:100F340011F0E33009F402C0E73009F402C0E830EC
:100F440009F402C0E63009F402C0E93009F402C031
:100F5400EA3021F40A93E8890E94BF0F1F931F5FB0
:100F6400EE85AF91AE17B8F5A985A63061F461DEC0
:100F740021DE0E94DB0FFA93EA935BDEAE2F0E9420
:100F8400560E39DE27C0E985E93011F450E00EC071
:100F9400EA3011F45FEF0AC00E94DB0F0E94E40FF5
:100FA4005E2FE985E73011F0E83021F40E94EA0F62
:100FB4005E2F06C0E33011F4509502C0E03021F4F6
:100FC400A52F0E94C50F06C00E94EE0FEFEFEA9313
:100FD400AD85CEDEC3CFEF85E85FEF87ED85E850C2
:100FE400ED87D1C05D8520E0E0E0ED877AC0E32F96
:100FF400AD85AE0FA93020F42D85E0E0ED8703C068
:10100400E8E0E31B2E2F3A93A22F0E94040E4E2FEA
:10101400E985E630F1F41F931F5FEE85AF91AE17BB
:10102400B8F40E94F40FAE2FE32F0E9444130E94E1
:10103400FB0FE32FA42F0E944413E095E1215E2BC4
:101044000E94DB0FFA93EA93A52F0E94560EE3CF7A
:101054002CC0E93011F450E003C0EA30A9F45FEF8A
:101064000E94EA0FAE2FE32F0E943C135E2F1F93C2
:101074001F5FEE85AF91AE1730F40E94EE0F4A93D6
:10108400A0E076DEF4CF11C01F931F5FEE85AF9111
:10109400AE1758F40E940610AE2FE32F0E943C13A3
:1010A400EA934A93AD8564DEEFCFED85E03009F431
:1010B40073C0AD85A83028F4ED85E21B5E2FE0E017
:1010C40003C0532FED85E850ED8710E0EF85E85F0E
:1010D400EF87E8E0E31B2E2F0889EA85FB85EE8382
:1010E400FF83E52FF0E0E45CF94F4491E985E630B5
:1010F400F1F41F931F5FEE85AF91AE17B8F40E9411
:10110400F40FAE2FE22F0E943C130E94FB0FE22F3C
:10111400A42F0E943C13E095E1215E2B0E94DB0F7B
:10112400FA93EA93A52F0E94560EE3CF2CC0E93020
:1011340011F450E003C0EA30A9F45FEF0E94EA0F13
:10114400AE2FE22F0E9444135E2F1F931F5FEE8584
:10115400AF91AE1730F40E94EE0F4A93A0E008DE80
:10116400F4CF11C01F931F5FEE85AF91AE1758F4F3
:101174000E940610AE2FE22F0E944413EA934A9372
:10118400AD85F6DDEFCFE885AA85BB85F0E0EA0FF3
:10119400FB1FEA87FB87B9CE0E944B146196089522
:1011A4000E94131024F0E0E0F0E00C940D0EA881EE
:1011B400B981A038E0E0BE0724F0EFE7F0E00C943A
:1011C4000D0EE881F9810C940D0E0E94131024F089
:1011D400E0E0F0E00C940D0EA881B981A034E0E0C9
:1011E400BE0724F0EFE3F0E00C940D0EE881F981E2
:1011F4000C940D0EAA931A93AA81A03818F4A9810D
:10120400A03438F0E0E0F0E060E070E018810C9485
:10121400540EE981E7701E2FE981E695E695E6957F
:10122400E983103011F0EF5FE983AA81BB27882797
:101234009927E981FF27662777270E946813EC5FC7
:10124400FF4F6F4F7F4F18810C94540EBA93AA939B
:1012540023970E941A108F01002E012A19F4E0E04E
:10126400F0E05FC00E9421100F820E9421100E82C4
:101274000E9421100886EB85A885EA1718F4E0E09F
:10128400F0E04FC0F8010F5F1F4F5491A885BB27B2
:10129400EE27A50FBE1FEB85F0E0EA17FB0718F059
:1012A400E0E0F0E03EC0EE81E695E695E6954E2F4F
:1012B400EE81E77009F04F5FEF81E030A1F0A9857E
:1012C400BA85EC93A885EB85EA1BF0E0DF01EF819A
:1012D400F0E00E946013DF01E42FF0E00E9460134D
:1012E400E00FF11F1EC09801E52FF0E00E0F1F1F45
:1012F400A885AF5FA887A150EB85AE1760F4F9010C
:101304002F5F3F4FA491B0E0E42FF0E00E94601300
:101314000E0F1F1FEDCFF901E491A985BA85EC9357
:10132400F8010E944B142C960895E0E0E093A80283
:10133400A091A902BB270E942610F0E0AE0FBF1FA8
:10134400E091AD02F0E0AE0FBF1F3FDFE093A902D2
:101354000895AA9321970E941A10309709F455C052
:10136400AF81AA3009F44FC0EF81EA93DE011796EA
:101374006DDFAF01309709F44AC0E091AC02AE8151
:10138400EA0F3E2FA091A802BB27F0E0EA0FFB1F53
:101394008F010138E0E01E0718F0032F1127C5DF85
:1013A400E091A802EA93E091A902EA93E885EA931E
:1013B4000E942610EA93E1E0EA935A934A93A7E045
:1013C40012DDE091A802AE81EA0FEA93E091A9024E
:1013D400EA93E091AC02EA930E9426100E942D1039
:1013E400E091A802EA93A091A9020E942610EA0FB4
:1013F400EA933A93E091AD020E942D10E0E8F0E008
:10140400E017F10711F491DF02C00093A8020E94D3
:101414004B1428960895BA93AA931A93EC81EA93ED
:10142400AC813CD0A981BA81ED91A983BA831E2FE6
:10143400E03019F0A12F8DDFF5CF18810C94DC0D6D
:10144400AA930E944614AC81A53000F5ED81FE817B
:1014540005910E94371015910E94371025910E9422
:1014640037103591ED83FE83E885EA93E885EA93A6
:101474000A932A93E1E0EA93EA85FB85FA93EA93D7
:10148400AB85B1DC0A93A22FB5DE04C0E0E0F0E046
:1014940060E070E00E944D1429960895AA93A981F2
:1014A400BB277EDEE093A802A881BB278EDEE093F3
:1014B400A9020C940D0EBA93AA931A930A93AA81C3
:1014C400BB8112960E94EF13309729F1AA81BB8148
:1014D40014960E94EF138F01309761F00230E0E020
:1014E4001E0780F0F80131978F01AA81BB81149601
:1014F400ED93FC93AA81BB8112960E943A10319716
:10150400AC81A083AA81BB810E94EF13FF2312F058
:101514000E943A1006C0AA81BB81EFEFFFEFED9362
:10152400FC93198108810C94DC0D0E944010E0E8C2
:10153400EA83EFE3EB830E944614EE85FF85EF3FD9
:10154400AFEFFA0749F4E885F985FA93EA93AAEB31
:10155400B6E00E94DE0DB7C0EF3FAFE7FA0749F4EB
:10156400E885F985FA93EA93ABEBB6E00E94DE0DC9
:10157400AAC0AB85A73010F0E6E0EB871B85E12F0E
:101584001150E03019F00E944710F9CFEC85FD8529
:101594006E857F850E943C1421F430E00E94471040
:1015A4002DC03B850E94531009F008F40BC00E9423
:1015B40047100E94531028F00E945E100E9463108E
:1015C400F8CF0DC00E94531040F40E945E100E9498
:1015D4006F100E9473103150F5CF0E944710EC85B4
:1015E400FD856E857F850E9478100E9473100E948D
:1015F400531020F00E945E100E94631010E0EB85EF
:10160400E117A8F1AC81BD818E819F810E947F107A
:101614000E947810DF01CB010E94A60EEC83FD83AB
:101624006E837F830E945E100E94C7120E94B611CF
:101634000E2F0E9486100E948D10FF2766277727A1
:101644000E94EF11AC81BD818E819F810E9479122D
:101654000E945E100E9492100E947310E12F1F5F7F
:10166400E03069F60E948610EEE2EC93C8CF0E9447
:1016740097103197AA85A08330302CF43195A88532
:10168400B985EDE203C0A885B985EBE2EC930E942D
:1016940097100E9497103197BF01A32FEAE00E9490
:1016A4009B13E05DDB01EC930E9497103197BF011F
:1016B400A32FEAE00E94C513E05DDB01EC93A8854B
:1016C400B985E0E0EC930E944D1460960895BA93B6
:1016D400AA93EF9761970E94441410E0FE01E85A20
:1016E400FF4F0190F081E02DE887F987FE01EA5A67
:1016F400FF4F0190F081E02DEE83FF83AE81BF8127
:10170400E0E0F0E0ED93FC93DE01A45ABF4F0E94A9
:101714003A103197E4912E2FE03009F4E9C1E12F1A
:10172400E03039F4253211F411E002C00E949D101A
:10173400DEC1E130C1F4253219F40E949D10D6C1F6
:1017440012E0E0E0ED8B00E02D3211F401E0CFC1B6
:101754002B3219F4EBE2ED8BCAC1203219F4E0E22A
:10176400ED8BC5C102C0E23039F450E013E0203300
:1017740011F40068BCC102C0E33091F4203310F0CE
:101784002A3308F007C0AAE05A9F502DE22FE053F5
:101794005E0FADC140E02E3211F414E0A8C10FC0B9
:1017A400E43099F4203310F02A3308F008C00062C2
:1017B400AAE04A9F402DE22FE0534E0F98C12C36E9
:1017C40019F4026015E093C103C0E53009F08FC13C
:1017D400E22FE33659F40E94A4100E94AB100E9439
:1017E400A410A481AA930E94B21080C1E53411F020
:1017F400E53609F403C0E63609F048C0FE017696E2
:10180400EE87FF870E94B8100E94F3130E94BF1056
:101814000E94C410AD85AA2332F0AD89AB3259F0D1
:10182400A03281F017C00E94C6100E9483110E944A
:10183400BF10EDE2ED8B07FF05C0ED89EA930E942E
:10184400B21008C0EE85FF853196EE87FF87319789
:10185400AD89A08305FF46E0263651F40E94C610E8
:101864000E9408144A93AB89BC890E94BD0E09C02A
:101874000E94C6100E9408144A932A93AC89BD8919
:1018840054DEFE0176960E94CB101EC0E33739F475
:101894000E94C4100E94D3100E94CB100EC0E037E7
:1018A400C1F40E94C4100E94D310EE87FF87AE8556
:1018B400BF850E94F70D1E2F08600F77403011F08E
:1018C400411708F001C0142F40E0E0E0EC8B30E059
:1018D4006DC0E43611F0E93611F4046002C0E53756
:1018E400A1F4EAE0EC8B01FF08C0E0E0FAEC6AE95D
:1018F4007BE30E94D8101AE022C0E0E1F7E260E046
:1019040070E00E94D81015E01AC0E83511F40860A0
:1019140003C0E83709F0EAC0E0E1EC8B01FF08C03E
:10192400E0E0F0E060E070E10E94D81018E007C049
:10193400E0E0F0E160E070E00E94D81014E0403094
:1019440011F00F7701C041E001FF08C00E94C410EC
:101954000E94B81014960E94F3130FC002FF07C030
:101964000E94C4100E94D3100E945B1306C00E9400
:10197400C4100E94D31066277727EA87FB876C87F9
:101984007D8702FF12C0AD85AA2342F40E94C610CF
:101994000E9434130E94BF10EDE2ED8BED89E0301C
:1019A40019F01F5F4F5F01C00B7F342F00FD14C07F
:1019B400151710F4351708F00FC007FF08C002FF11
:1019C40004C00B7F2D89115001C020E301C020E227
:1019D4000E949D105150ECCF141790F4006102FF47
:1019E40006C00E94DD1009F0515011504150E0E34F
:1019F400EA930E94B210503009F051504150ECCF9C
:101A0400312FEC89E030B9F43030A1F003FF06C087
:101A1400EE85FF852591EE87FF8705C0AE85BF85DE
:101A24002D91AE87BF870E949D10503009F0515010
:101A34003150EACF51C00E94EF100E94A0132E2F04
:101A44002A3030F003FF02C0295C01C0295A01C0CA
:101A5400205D04FD21C0213360F4A889B9898A89F5
:101A64009B89A130E0E0BE07E0E08E07E0E09E073E
:101A740009F40BC0431740F4531710F000FF01C0E2
:101A840010C020E207FF08C020E3006102FF04C089
:101A94000E94DD1009F051500E949D10503009F051
:101AA400515031500E94EF100E94D1130E94BF1078
:101AB400EC89A889B9898A899B89FF2766277727B2
:101AC4000E94A0130E94D810E889F9896A897B8949
:101AD4000E943C1409F0AFCF00FF08C0503031F031
:101AE4005150E0E2EA930E94B210F8CF10E00CCE1D
:101AF400AE81BF810E94EF130E944B14EF966F9644
:101B04000895FF92F82E26970E9446140E94F8101A
:101B1400309719F4EFEFFFEF23C0DE0116960E9411
:101B24002C138D010E94F810EE83FF83E0E0E88718
:101B3400E987DE011A960E942C130E94EF13FA9390
:101B4400EA931A930A93EDE5FAE0FA93EA93DE0135
:101B54001A96BDDD9F01AE81BF81E0E0EC93F901EF
:101B64000E944D142A96FF900895AA93E881E29565
:101B7400EF70AE2FAA0FAA0FEA0FEE0FA991AF7064
:101B8400EA0F0895AA93A991EE27AA5012F0E05FF4
:101B9400FCCFA65FEA0F0895BA93AA93B981A881EE
:101BA400109631F0FC81EB816A8161931197E9F71A
:101BB400EB81FC8125960895BA93AA93E991F99152
:101BC400A991B991CD0105900D920020E1F7FC0196
:101BD4000895BA93AA93A991B991EE27FF276D911D
:101BE400662311F03196FBCF0895BA93AA93AA27DE
:101BF400BB27E991F9910590002011F01196FBCFD4
:101C0400FD010895AA93E881F0E0E45CF94FA49102
:101C1400E9810E943C1322960895AA931A93E981BC
:101C2400E73011F0EA3019F41091A60209C0E93046
:101C340019F41091A70204C0E830A1F41091B6027F
:101C4400E091A702E03049F0103019F0EFEF18816D
:101C540029C0EA81E095188125C0103019F4E0E02C
:101C6400188120C0EA8118811DC0BA93AA93EA8121
:101C7400E13021F4E881F981E49114C0E23029F4DF
:101C8400A881B9810E941F140DC0E33041F4A881DA
:101C9400B981E091BF02F091C002099503C0A88107
:101CA400B981EC9123960895AA93EB81E03029F44D
:101CB400E881A981BA81EC9314C0E23031F4E8815F
:101CC400A981BA810E942B140CC0E33051F4E9813C
:101CD400FA81FA93EA93AA81E091C102F091C202D7
:101CE40009950C94BB0E0E940D147B816A81F981C5
:101CF400E88177FB770F67FD7160972F9E5781F01E
:101D040078F0983190F4AA27BB2788270894879500
:101D1400B795A7959A95D1F7EA23FB23682305C0C5
:101D2400E8947727EE27FF2766276F77769508F4E0
:101D3400606877F9A991B99189919991EA17FB079C
:101D44006807790797FB08950E940D140E94FE13FB
:101D54000E94750E0E94031419F40E94F91309C01D
:101D6400E6F70E94F913A0E0B0E080E89FE30E9448
:101D740022122496089582D1E0E0EA83EFE3EB8314
:101D84001A930A93EB85FC85EF3FAFEFFA0731F422
:101D940034D2A2ECB6E00E94DE0D84C0EF3FAFE780
:101DA400FA0731F42AD2A3ECB6E00E94DE0D7AC021
:101DB400AC85AA2352F4E985FA856B857C850E945B
:101DC400831120D224D2EDE2EC93A885A73010F041
:101DD400E6E0E8871885E12F1150E03021F01ED2AB
:101DE4008CD121D2F8CF24D20E9429120BD210E038
:101DF400E0E0F0E060E87FE316D21AD20E940C1310
:101E040068F00CD26AD10FD21F5F173230F0F5D1CF
:101E1400A7ECB6E00E94DE0D45C0EFCF103021F4F0
:101E2400F6D1E0E3EC931DC0E12F1150E030C9F08E
:101E3400F5D163D15BD1DF01CB010E94A60EF3D1B2
:101E4400F7D10E94C7120E94B6110E2FE0D163D1C0
:101E5400F0E0E4D13DD00E947912F3D161D1D2D126
:101E6400E3CFE885E030D1F0D2D1EEE2EC93E8851F
:101E7400E150E887EF5F91F0E4D12FD1C3D1E98538
:101E8400FA856B857C850E94B6110E2FC0D143D193
:101E9400F0E0D7D11DD044D1B5D1E9CFAE81BF8117
:101EA400E0E0EC93198108812D9608955A924A92A4
:101EB400A72D0C946D05FF27662777270E94081429
:101EC40008958CE00E94830D6096E3E2EA930895FE
:101ED4000E945B130E94EF110895E0E0F0E060E2DD
:101EE40071E40895A091F302B091F4028091F50297
:101EF4009091F60208950E946111A0E00C94611182
:101F0400EE0FE0691E2F0E942D11A12F0895AE2F10
:101F14000E9461110C943C110E946111A1E00C9487
:101F240046110E942D11A0ED0C9461110E943C11E8
:101F34000E942D11A1EDF0CFAE2F0E94B70DA88104
:101F4400B981EC930895A1E00E944611AE2F0C9440
:101F5400B70DAA81BB81EC93A0E00C9446110E94BA
:101F6400C40DAE2F0C946111C198EFEFEABBE88168
:101F7400EBBB0E94AF050C94B305E695E695E69598
:101F8400AE2F0C94EE050E9412060C94FD05EA0F88
:101F9400FB1FEE83FF830895EC85EA93EF81F885B8
:101FA4003196EF83F8873197FA93EA93A0E00C9483
:101FB400560EEC85EA93EF81F8853196EF83F88726
:101FC4003197089566277727DF01CB010C94370EEC
:101FD4005A93AA850C940F0E0A930395E889EA9301
:101FE4005A9308950A930395A8890E942406E4232A
:101FF40008955E2FEC85EA93AF81B88588279927E9
:102004000E94370E1E2E08950A930395E889EA93D9
:10201400EE85EA93E985FA853196E987FA8731975F
:10202400D1CFBA93AA93A881B9810E94401408958C
:102034000E944414E091AA02F091AB020895F801C1
:102044000F5F1F4F04900895E091AA02F091AB0234
:102054003196E4910895EA93E0E0EA93E0E0F0E059
:10206400FA93EA93A9E00C94F506ED83FE830895B0
:10207400ED91FD913196FE93EE930895BA93AA9350
:102084002497E0E0E883E9830895AC81BD818E81E3
:102094009F8123DF0E947912EC83FD836E837F830B
:1020A4000895EC81FD816E817F81AC85BD858E852F
:1020B4009F850E940C130895AC85BD858E859F85F0
:1020C4000895EDECFCEC6CEC7DE30E947912EC8756
:1020D400FD876E877F873F5F0895FFDE0E94791238
:1020E4000895EC87FD876E877F870895A0E0B0E0B0
:1020F40080E09FE30E9429120895EDECFCEC6CEC67
:102104007DE30E9479120895A885B9851196A88760
:10211400B98711970895E02FE05DEC93E02F0895BF
:102124000E9412140E9422120895E885F9853196BE
:10213400E887F98708952A93AF81B885E985FA85F8
:1021440009950895FE01E65AFF4F0190F081E02DB4
:1021540008953497DE01A65ABF4FED93FC9308957A
:10216400AF81B885E985FA8509950895DE01A65AF7
:10217400BF4F0D90BC91A02D0895EA87FB876C8713
:102184007D870895DFDFE5CFEA85FB856C857D8556
:102194000895EE87FF87AE85BF850E94EB0D1E2F45
:1021A4000895E4DF14960E94EF130895E88BF98BE9
:1021B4006A8B7B8B08950B7FED89EA93DE01A95A24
:1021C400BF4F0D90BC91A02DFE01E75AFF4F019027
:1021D400F081E02D099550300895E889F9896A89DC
:1021E4007B89AA85BB858C859D850895DE011C9617
:1021F4000E942C130E94EF130895EE81FF81FA933D
:10220400EA930895E987FA876B877C870895AE81FE
:10221400BF811196AE83BF8311970895AA81BB81B4
:102224008C819D810895EA83FB836C837D8308956B
:10223400EA81FB816C817D81A985BA858B859C852A
:102244000895A985BA858B859C850895A898A99831
:10225400A09AA19815C0A198A098EE270000999B78
:102264000895989B089504D0A19A02D0A09AE1E021
:1022740062E007C0A19AA09A03D0A098F9DFA198C0
:1022840063E06A95F1F7089578E0A098F1DF989BF0
:10229400FECFEEDF889499990894A09AF1DFEE1F9F
:1022A4007A9599F77A2F772311F4A19801C0A19A0E
:1022B400DFDFA098E5DFA09ADBDFA198D9CF78E033
:1022C400AA0F10F4A19801C0A19ADADFA098D0DF78
:1022D400989BFECFCDDFA09A7A9591F7A198C8DF9D
:1022E400A098CEDFE1E09999EE27A09AC1CF10968D
:1022F40039F0A8958AEF90E00197F1F71197C9F7A3
:10230400089530976040704009F07058089555233F
:1023140042F4503811F4E0FF04C03196691F791F6C
:102324006BF050E8572711F45F93CFC05F3F31F053
:10233400660F000C57956795752F08955F930020DD
:102344000AF0CFC0C8C050E8192E1522880F991F73
:102354009527550F879550E8072E0522660F771F9E
:102364007527550F67950895689401C0E8945F93A5
:10237400F2DF703818F07F3F08F4A7C056E1571B0E
:10238400AAF4519558300EF4593030F0EFEFFFEFC6
:102394006FEF7FE777F91AC077275523B9F0EE0F6F
:1023A400FF1F661F771F5A95D1F710C07727583043
:1023B40028F0EF2FF62F672F5850F9CF552331F01F
:1023C40076956795F795E7955A95D1F700200AF425
:1023D40049D15F910895689401C0E89430976040B2
:1023E4007040B1F0002426F0772312F400943AD11F
:1023F400172E7EE1112032F07A95EE0FFF1F661F33
:10240400111CF9CFEF2FF62F612D5F938ADF5F91B7
:1024140008954F93AF01FD01DA01AB01BC01CA017C
:10242400402D012C142E4F910895EA0FFB1F681FB5
:102434000895E095F0956095EF5FFF4F6F4F089515
:102444005F9381DF903871F150E8152604C05F93E3
:102454007ADF903839F1703821F1572F591B2BF15D
:1024640012F4D7DFFACF583118F0AA27BB278827F0
:10247400583028F0AB2FB82F88275850F9CF552360
:1024840029F08695B795A7955A95D9F7502D5125DA
:1024940072F0CBDF38F46795F795E795739513F4ED
:1024A40020C0B7DF3EDF5F910895D8F7FBCFEA1B6A
:1024B400FB0B680B51F010F40094BBDF662392F31E
:1024C400EE0FFF1F661F7A95CBF7EE27FF276627CF
:1024D40077275F910895EFEFFFEF6FE77FEF5F914D
:1024E4000895EFEFFFEF6FE77FE75F9108955F9344
:1024F4002ADF703851F3903841F301240894791F8E
:1025040023F41CF300203AF3ECCF0F921F932F9384
:102514003F934F93112722279927689FA0018F9FEC
:10252400302D410D591F6B9F300D411D591F8E9F3A
:1025340027D0BF9F25D06A9F23D0BE9F1DD0AF9FB9
:102544001BD0AE9F110D291F391F491F591FE32F9F
:10255400F42F652F522F4F913F912F911F910F9080
:1025640066232AF0550FEE1FFF1F661F02C07395E6
:102574004BF2CDDE5F910895100D211D391F02C06D
:10258400200D311D491F591F08955F93DCDE7038FB
:1025940021F411200AF49FCFA4CF903809F495CFE9
:1025A40001240894970B1BF4D4F30020F3CF792F64
:1025B4001F932F933F934F931124112722273327DF
:1025C4004427552790E2AE17BF078607410730F02E
:1025D400AE1BBF0B860B410B089401C08894551F9A
:1025E400221F331F111CAA1FBB1F881F441F9A954B
:1025F40051F7F901612D4F913F912F911F9166235E
:1026040032F0550FEE1FFF1F661F7A9543F27FDEEF
:102614005F91089599239AF0772342F0971748F031
:1026240029F4AE17BF07860720F031F098948894F8
:102634000895989408940895189488940895772395
:10264400C2F7971798F3A9F7EA17FB07680788F307
:1026540099F3ECCF0024AF0DB01D0895F195E195E9
:10266400F0400895F09560957095E195FF4F6F4F98
:102674007F4F0895EE230E2EEA2F19F0EE0F0A94E1
:10268400E9F70895EE230E2EEA2F19F0E6950A9441
:10269400E9F70895EE230E2EFD0121F0F595E79557
:1026A4000A94E1F70895FE2FFF0FFF0B6F2F7F2F82
:1026B40008956F2F660F660B762F0895FA9FF02DFD
:1026C400EB9FF00DEA9FE02DF10D08957A9F702D98
:1026D4006B9F700DF89F700DE99F700D6A9F602DC0
:1026E400710DFB9F600D711DE89F600D711D8827A2
:1026F400FA9FF02D610D781FEB9FF00D611D781F7F
:10270400EA9FE02DF10D681F781F089558D0D6DF99
:102714000EF4A4DF0895002498E0AA0F001C0E1AFA
:1027240010F40E0E01C0A1609A95B9F7EA2FA02DFE
:10273400089539D0F0DF0EF4E19508953F934F9357
:102744005F93002411244427552730E2AA0FBB1FAE
:10275400881F991F001C111C441F551F0E1A1F0AA5
:10276400460B570B28F40E0E1F1E461F571F01C0A1
:10277400A1603A9559F7FD01BC01D001CA015F91EE
:102784004F913F910895E894A7FF02C0A1956894E2
:10279400E7FDE195C0DFEA2F0EF4E1950895CEDF61
:1027A400FD01BC010895E894E7FF02C0E195689437
:1027B400A7FF04C0A19500F8039400FA0895E894D3
:1027C400F7FF02C04BDF6894B7FF06C0A095B09531
:1027D400119600F8039400FA0895ED91FC91119775
:1027E4000895ED91FD916D917C9113970895E88181
:1027F400F9816A817B810895A881B9818A819B814D
:102804000895E883F9836A837B8308957A936A93AE
:10281400FA93EA9308959A938A93BA93AA9308959C
:10282400182E862F612D192E972F712D1B2EBF2F39
:10283400F12D1A2EAE2FE12D0895E199FECFFF93CD
:10284400FFB7F894AEBBBFBBE09AEDB3FFBFFF91F7
:102854000895E19B02C0A895FCCF9FB7F894AEBB46
:10286400BFBBE09A8DB3E81719F0EDBBE29AE19A89
:102874009FBF0895309760407040089500240A1661
:102884000B0608955A934A933A932A931A930A93F8
:1028940008955D814C813B812A81198108810895C5
:00000001FF
